:100000000C94B1000C94C6000C94C6000C94C6006D
:100010000C94C6000C94C6000C94C6000C94C60048
:100020000C94C6000C94C6000C94C6000C94C60038
:100030000C94C6000C94C6000C94C6000C94C60028
:100040000C94C6000C94C6000C94C6000C94C60018
:100050000C94C6000C94C6000C94C6000C94C60008
:100060000C94C6000C94C60000407A10F35A00A00D
:10007000724E18090010A5D4E80000E87648170071
:1000800000E40B54020000CA9A3B000000E1F505B1
:10009000000080969800000040420F000000A086FB
:1000A00001000000102700000000E803000000002D
:1000B0006400000000000A000000000001000000D1
:1000C00000002C76D888DC674F0823DFC1DFAE59EB
:1000D000E1B1B796E5E3E453C63AE651997696E87E
:1000E000E6C28426EB898C9B62ED407C6FFCEFBC02
:1000F0009C9F40F2BAA56FA5F490055A2AF75C932D
:100100006B6CF9676DC11BFCE0E40D47FEF520E662
:10011000B500D0ED902E0300943577050080841E45
:10012000080000204E0A000000C80C333333330FA0
:10013000986E12831141EF8D2114893BE65516CF3D
:10014000FEE6DB18D1844B381BF77C1D901DA4BB49
:10015000E424203284725E228100C9F124ECA1E5FE
:100160003D2711241FBECFEFD8E0DEBFCDBF11E089
:10017000A0E0B1E0E6EBFDE002C005900D92A237F1
:10018000B107D9F70E9492010C94D9060C94000093
:100190001092C50083E38093C40088E08093C1007F
:1001A00086E08093C20008959091C00095FFFCCF37
:1001B0008093C6000895CF93DF93EC01899181115C
:1001C00003C0DF91CF9108950E94D400F7CF0F9321
:1001D0001F93CF93DF93CDB7DEB72A970FB6F8946E
:1001E000DEBF0FBECDBF8E010F5F1F4F22E044E088
:1001F0000E944D04C8010E94DB002A960FB6F894B5
:10020000DEBF0FBECDBFDF91CF911F910F9108953B
:1002100080E480937C0086E880937A000895909132
:100220007C00907F8F70982B90937C0080917A0057
:10023000806480937A0080917A0086FDFCCF809163
:10024000780090917900089580E00E940F01BC0130
:1002500090E080E00E94290320E030E040EA50E492
:100260000E94E00320E030EC4FE754E40E94B70224
:1002700020E030E048EC52E40E94E0030895CF9281
:10028000DF92EF92FF9281E00E940F01BC0190E0AB
:1002900080E00E94290320E030E040EA50E40E9420
:1002A000E00320E030EC4FE754E40E94B70220E086
:1002B00030E040E250E40E94450224EA30E74DE39A
:1002C0005EE30E94B7026B017C0120E030E0A901EF
:1002D0000E94B20287FF04C0F7FAF094F7F8F09496
:1002E000C701B601FF90EF90DF90CF9008952C9A50
:1002F00008952C9808955E9A08955E980895289A16
:1003000008952898089585B1857F85B92A9A08951A
:1003100085B1897F85B92B9A089585B1837F85B989
:10032000299A08950E94C8000E94080184B18F6133
:1003300084B9569A0E9477010E947D010E94810132
:100340000E94830180E091E00E94DB00C0E00E94F7
:1003500024016B017C010E943F014B015C0181E1A2
:1003600091E00E94DB00C701B6010E94E70084E132
:1003700091E00E94DB00C501B4010E94E7008BE11F
:1003800091E00E94DB0020E030E040E05FE3C50147
:10039000B4010E94DB0387FD17C00E9479010E940F
:1003A0007B010E947F010E948D0180E291E00E940A
:1003B000DB00C1E02FEF84E39CE0215080409040BF
:1003C000E1F700C00000C3CF20E030E040E752E496
:1003D000C701B6010E94DB0387FD0BC00E947901B3
:1003E0000E947B010E947F010E948D0187E391E0C2
:1003F000DECFC13011F526E636E646EE5EE3C501F6
:10040000B4010E94B20287FFD5CF20E030E04CE576
:1004100052E4C701B6010E94B20287FFCBCF0E940F
:1004200077010E9481010E947D010E9483018EE478
:1004300091E00E94DB00C0E0BDCF0E9477010E94E6
:10044000810120E030E040E252E4C701B6010E94A1
:10045000DB0387FD09C00E947B010E9488018FE5B4
:1004600091E00E94DB00A6CF20E030E048E152E4BA
:10047000C701B6010E94B202181624F00E947D0145
:100480000E94830186E591E0ECCF5058BB27AA2754
:100490000E945D020C94A1030E94930338F00E9415
:1004A0009A0320F039F49F3F19F426F40C9490033A
:1004B0000EF4E095E7FB0C948A03E92F0E94B20347
:1004C00058F3BA17620773078407950720F079F489
:1004D000A6F50C94D4030EF4E0950B2EBA2FA02DA4
:1004E0000B01B90190010C01CA01A0011124FF27E1
:1004F000591B99F0593F50F4503E68F11A16F040DC
:10050000A22F232F342F4427585FF3CF46953795DA
:100510002795A795F0405395C9F77EF41F16BA0B9F
:10052000620B730B840BBAF09150A1F0FF0FBB1F4D
:10053000661F771F881FC2F70EC0BA0F621F731F96
:10054000841F48F4879577956795B795F7959E3FF3
:1005500008F0B0CF9395880F08F09927EE0F979584
:10056000879508950E94660308F481E008950E942B
:10057000CB020C94A1030E949A0358F00E949303AB
:1005800040F029F45F3F29F00C948A0351110C9438
:10059000D5030C9490030E94B20368F39923B1F33E
:1005A000552391F3951B550BBB27AA276217730799
:1005B000840738F09F5F5F4F220F331F441FAA1F2D
:1005C000A9F335D00E2E3AF0E0E832D091505040E9
:1005D000E695001CCAF72BD0FE2F29D0660F771F97
:1005E000881FBB1F261737074807AB07B0E809F07D
:1005F000BB0B802DBF01FF2793585F4F3AF09E3F02
:10060000510578F00C948A030C94D5035F3FE4F312
:10061000983ED4F3869577956795B795F7959F5F44
:10062000C9F7880F911D9695879597F90895E1E090
:10063000660F771F881FBB1F621773078407BA07EF
:1006400020F0621B730B840BBA0BEE1F88F7E0954A
:100650000895E89409C097FB3EF4909580957095B5
:1006600061957F4F8F4F9F4F9923A9F0F92F96E9FE
:10067000BB279395F695879577956795B795F11173
:10068000F8CFFAF4BB0F11F460FF1BC06F5F7F4F10
:100690008F4F9F4F16C0882311F096E911C0772322
:1006A00021F09EE8872F762F05C0662371F096E82B
:1006B000862F70E060E02AF09A95660F771F881FFA
:1006C000DAF7880F9695879597F90895990F00089E
:1006D000550FAA0BE0E8FEEF16161706E807F90714
:1006E000C0F012161306E407F50798F0621B730BAF
:1006F000840B950B39F40A2661F0232B242B252B30
:1007000021F408950A2609F4A140A6958FEF811DD2
:10071000811D089597F99F6780E870E060E0089573
:100720009FEF80EC089500240A9416161706180609
:100730000906089500240A941216130614060506E5
:100740000895092E0394000C11F4882352F0BB0F76
:1007500040F4BF2B11F460FF04C06F5F7F4F8F4FD9
:100760009F4F089557FD9058440F551F59F05F3F14
:1007700071F04795880F97FB991F61F09F3F79F0C3
:1007800087950895121613061406551FF2CF469545
:10079000F1DF08C0161617061806991FF1CF8695C7
:1007A0007105610508940895E894BB2766277727AB
:1007B000CB0197F908950E94660308F48FEF08951E
:1007C0000E94F3030C94A1030E94930338F00E944B
:1007D0009A0320F0952311F00C948A030C94900353
:1007E00011240C94D5030E94B20370F3959FC1F3BA
:1007F000950F50E0551F629FF001729FBB27F00DCF
:10080000B11D639FAA27F00DB11DAA1F649F662723
:10081000B00DA11D661F829F2227B00DA11D621F72
:10082000739FB00DA11D621F839FA00D611D221F2C
:10083000749F3327A00D611D231F849F600D211D10
:10084000822F762F6A2F11249F5750409AF0F1F093
:1008500088234AF0EE0FFF1FBB1F661F771F881FFC
:1008600091505040A9F79E3F510580F00C948A03A7
:100870000C94D5035F3FE4F3983ED4F386957795C7
:100880006795B795F795E7959F5FC1F7FE2B880FA2
:10089000911D9695879597F90895EF920F931F9361
:1008A000CF93DF93E80134E047FD34E1042E000CE0
:1008B000550B57FF03C0519541955109E32E022F67
:1008C000242FAE010E946B04CE01DF91CF911F91C6
:1008D0000F91EF900895A9E0B0E0E1E7F4E00C9407
:1008E000A8066A01F22EB02E102FFBE3AF2EA01641
:1008F00008F41BE31F5F012F27E0AE014F5F5F4F3E
:100900000E94CA05BC018981982F9970913009F421
:100910003FC09BE2E1FC04C09E2D9170E0FC3AC018
:100920005E2D5071E82FE87083FF46C084E091117E
:1009300001C083E0EF2DE81B8F1508F0E0E0D60141
:100940008E2F20E2552351F1992329F0D6019C9353
:10095000C60101966C0196012D5F3F4FE2FE24C057
:100960008EE4D6018C9391E411969C931197129684
:100970008C93D9018E2F90E281111BC0E20FF32FCF
:10098000F11D10828EEF9FEF2996ECE00C94C406C7
:100990009DE2C6CF90E2C4CF2D9381508111FCCF50
:1009A000CE0ED11CE0E0D0CF8EE6D6018C9391E63E
:1009B000DBCF9D938150E0CF482F447082FF3DC034
:1009C00084E0911101C083E08F1510F4EF2DE81B36
:1009D000D6018E2F20E2552309F1992329F0D60163
:1009E0009C93C60101966C0196012D5F3F4FE2FE7C
:1009F0001BC089E4D6018C938EE411968C931197D9
:100A000086E412968C93D9018E2F90E2882309F404
:100A1000B5CF9D938150FACF2D9381508111FCCF9A
:100A2000CE0ED11CE0E0D9CF89E6D6018C938EE6BC
:100A300011968C93119786E6E4CF9B0177FF02C055
:100A400030E020E0A1E0B0E0911102C0B0E0A0E011
:100A5000F9013196AE0FBF1F8B2C912CBB2009F4EE
:100A600061C05401EFEFAE1ABE0AAA0DBB1DFA1603
:100A70001B0619F014F04F2D4A1B511188C0E3FCDE
:100A800059C07601A42FB0E2A1114FC0C40ED11CF1
:100A9000992309F45BC040E0D6011196F6019083DA
:100AA0006D01552309F448C0012F060F9A81582F74
:100AB000507184FF03C0913309F4015010160CF0FB
:100AC00047C0093008F008E0EEE2FE2E5B01A01AF4
:100AD000B10885019194819491082F3F320729F440
:100AE000D601FC92F60131966F016217730794F1FB
:100AF000021713077CF5DB01A21BB30BAA24A394F6
:100B0000B12CAC0EBD1EAA0DBB1D11968C912150AF
:100B10003109D601119628153905F4F0F6018083C4
:100B20006D01DBCFB12CA12CA0CFF701B1937F01D8
:100B3000A150AACF9111B0CFD601942F50E302C09B
:100B40005D9391509111FCCFC40ED11C40E0ACCF0D
:100B500001E0BACF80E3DBCF6217730731F496333D
:100B600088F4953311F4552369F0F6018083FD0173
:100B7000842F90E2811108C0A40FB11D1C9290E057
:100B800080E002CF81E3F1CF91938150F3CF9111B7
:100B900083CF8ACF283008F027E03327DA01990F76
:100BA000311D87FD916000966105710539F4326051
:100BB0002E5F3D9330E32A95E1F708959F3F30F093
:100BC00080387105610509F03C5F3C5F3D939130D1
:100BD00008F08068911DDF93CF931F930F93FF92CE
:100BE000EF92192F987F9695E92F96959695E90F94
:100BF000FF27EE53FF4F99273327EE24FF24A70149
:100C0000E70105900894079428F4360FE71EF81EB4
:100C1000491F511D660F771F881F991F0694A1F762
:100C20000590079428F4E70EF81E491F561FC11DB2
:100C3000770F881F991F661F0694A1F705900794E8
:100C400028F4F80E491F561FC71FD11D880F991F82
:100C5000661F771F0694A1F70590079420F4490FAB
:100C6000561FC71FD81F990F661F771F881F06942E
:100C7000A9F784911095177041F0D695C7955795AF
:100C80004795F794E7941A95C1F7E8E6F0E0689481
:100C90001590159135916591959105907FE2739529
:100CA000E118F10A430B560BC90BD009C0F7E10C50
:100CB000F11E431F561FC91FD01D7EF4703311F45F
:100CC0008A95E6CFE894015030F0080F0AF4002727
:100CD000021708F4202F2395022F7A3328F079E3A6
:100CE0007D932A95E9F710C07D932A9589F606949D
:100CF00097956795379517951794E118F10A430B67
:100D0000560BC90BD00998F023957E9173957A33D1
:100D100008F070E37C932013B8F77E9170617D93A7
:100D200030F0839571E37D9370E32A95E1F7112408
:100D3000EF90FF900F911F91CF91DF91992787FD41
:100D4000909508952F923F924F925F926F927F926B
:100D50008F929F92AF92BF92CF92DF92EF92FF92CB
:100D60000F931F93CF93DF93CDB7DEB7CA1BDB0B77
:100D70000FB6F894DEBF0FBECDBF09942A8839881C
:100D800048885F846E847D848C849B84AA84B98423
:100D9000C884DF80EE80FD800C811B81AA81B9812F
:100DA000CE0FD11D0FB6F894DEBF0FBECDBFED0143
:060DB0000895F894FFCF46
:100DB60053595354454D20535441525445440D0AFA
:100DC60000543D0020432020493D002041202000C2
:100DD6004F5645524C4F4144202D204D4F544F52B3
:100DE600204F46460D0A004F56455248454154206D
:100DF6002D204D4F544F52204F46460D0A00524566
:100E0600534554202D204E4F524D414C0D0A00574C
:100E160041524E494E47202D2046414E204F4E0D01
:020E26000A00C0
:00000001FF
