:100000000C9438000C940A040C940A040C940A040E
:100010000C940A040C940A040C940A040C940A0428
:100020000C940A040C940A040C940A040C940A0418
:100030000C940A040C940A040C940A040C940A0408
:100040000C940A040C940A040C940A040C940A04F8
:100050000C940A040C940A040C940A040C940A04E8
:100060000C940A040C940A040100014100082200C7
:1000700011241FBECFEFD8E0DEBFCDBFE8E6F0E031
:1000800040E017C0B591A59135912591059107FDE7
:100090000CC095918591EF01F92FE82F05900D92F5
:1000A000A217B307D9F7FE0104C01D92A217B30728
:1000B000E1F7EF36F40731F70E9462000C94B903C0
:0400C000F894FFCFE2
:1000C4000E948C030E94CC0384B1876084B980E0D1
:1000D4000E946803EC0181E00E9468037C01BE0178
:1000E40080E090E00E948C0220E030E040EA50E49E
:1000F4000E94030420E030EC4FE754E40E94FF0325
:1001040020E030E048EC52E40E9403040E94C9025B
:100114004B015C01EB01B70180E090E00E948C028E
:1001240020E030E040EA50E40E94030420E030EC98
:100134004FE754E40E94FF0322E538EB4EE150E41C
:100144000E94D30324EA30E74DE35EE30E94FF03F9
:100154006B017C0120E030E0A9010E94F5038823B3
:1001640024F4F7FAF094F7F8F09480E091E00E9418
:100174009B03C4010E94400283E091E00E949B0320
:1001840086E091E00E949B03C701B6010E94C90268
:10019400CB010E94400289E091E00E949B0320E091
:1001A40030E040E450E4C701B6010E94FA03181697
:1001B4004CF42A98299A8CE091E00E949B030E94B7
:1001C4003E0385CFED9748F02A98299A8EE191E075
:1001D4000E949B030E9453037ACF2A9A2998289855
:1001E40080E391E00E949B032FEF84E39CE0215085
:0C01F40080409040E1F700C0000069CF9F
:1002000010C00E94E10358F00E94DA0340F029F484
:100210005F3F29F00C94EF0351110C94E9030C9407
:1002200007040E941C0368F39923B1F3552391F34B
:10023000951B550BBB27AA2762177307840738F055
:100240009F5F5F4F220F331F441FAA1FA9F335D0B2
:100250000E2E3AF0E0E832D091505040E695001C66
:10026000CAF72BD0FE2F29D0660F771F881FBB1F20
:10027000261737074807AB07B0E809F0BB0B802DFE
:10028000BF01FF2793585F4F3AF09E3F510578F02A
:100290000C94EF030C94E9035F3FE4F3983ED4F32E
:1002A000869577956795B795F7959F5FC9F7880FFE
:1002B000911D9695879597F90895E1E0660F771F50
:1002C000881FBB1F621773078407BA0720F0621BE1
:0E02D000730B840BBA0BEE1F88F7E0950895B0
:1002DE000FC00E94DA0338F00E94E10320F095234C
:1002EE0011F00C94EF030C94070411240C94E90301
:1002FE000E941C0370F3959FC1F3950F50E0551F9C
:10030E00629FF001729FBB27F00DB11D639FAA275C
:10031E00F00DB11DAA1F649F6627B00DA11D661FAB
:10032E00829F2227B00DA11D621F739FB00DA11DCC
:10033E00621F839FA00D611D221F749F3327A00D86
:10034E00611D231F849F600D211D822F762F6A2F22
:10035E0011249F5750409AF0F1F088234AF0EE0F87
:10036E00FF1FBB1F661F771F881F91505040A9F7B4
:10037E009E3F510580F00C94EF030C94E9035F3F10
:10038E00E4F3983ED4F3869577956795B795F795F0
:10039E00E7959F5FC1F7FE2B880F911D9695879568
:0403AE0097F908951E
:1003B20011C00E94DA0338F00E94E10320F039F400
:1003C2009F3F19F426F40C9407040EF4E095E7FB22
:1003D2000C94EF03E92F0E941C0358F3BA1762072B
:1003E20073078407950720F079F4A6F50C94E803C7
:1003F2000EF4E0950B2EBA2FA02D0B01B90190013E
:100402000C01CA01A0011124FF27591B99F0593F81
:1004120050F4503E68F11A16F040A22F232F342FC9
:100422004427585FF3CF469537952795A795F04017
:100432005395C9F77EF41F16BA0B620B730B840B2C
:10044200BAF09150A1F0FF0FBB1F661F771F881FE4
:10045200C2F70EC0BA0F621F731F841F48F487953C
:1004620077956795B795F7959E3F08F0B0CF93952E
:0E047200880F08F09927EE0F9795879508954B
:100480000F931F93CF93DF938C019C013695279593
:1004900036952795ABE7B4E10E94AA039695879518
:1004A000805D0E94C4039801ADECBCEC0E94AA03DD
:1004B000EC01D695C795D695C795D695C7959E015B
:1004C0000E94AA0396958795969587959695879508
:1004D000880F991F9C01220F331F220F331F820F99
:1004E000931F9E01281B390BC901805D0E94C40324
:1004F000CC0FDD1FCE01880F991F880F991FC80FE1
:10050000D91FC8018C1B9D0B805D0E94C403DF9125
:08051000CF911F910F91089596
:10051800E89409C097FB3EF4909580957095619595
:100528007F4F8F4F9F4F9923A9F0F92F96E9BB274B
:100538009395F695879577956795B795F111F8CFC7
:10054800FAF4BB0F11F460FF1BC06F5F7F4F8F4F32
:100558009F4F16C0882311F096E911C0772321F028
:100568009EE8872F762F05C0662371F096E8862FC0
:1005780070E060E02AF09A95660F771F881FDAF717
:0A058800880F9695879597F908955E
:100592000E94240388F09F5798F0B92F9927B751EA
:1005A200B0F0E1F0660F771F881F991F1AF0BA9515
:1005B200C9F714C0B13091F00E94E803B1E0089588
:1005C2000C94E803672F782F8827B85F39F0B93F7A
:1005D200CCF3869577956795B395D9F73EF49095C8
:0E05E2008095709561957F4F8F4F9F4F0895C4
:1005F000990F0008550FAA0BE0E8FEEF1616170634
:10060000E807F907C0F012161306E407F50798F09B
:10061000621B730B840B950B39F40A2661F0232BB4
:10062000242B252B21F408950A2609F4A140A69530
:080630008FEF811D811D08956B
:1006380057FD9058440F551F59F05F3F71F047958B
:10064800880F97FB991F61F09F3F79F08795089570
:10065800121613061406551FF2CF4695F1DF08C08F
:10066800161617061806991FF1CF869571056105AC
:040678000894089545
:10067C00289A2FEF80E792E0215080409040E1F7DC
:10068C0000C0000028982FEF80E792E021508040B6
:0A069C009040E1F700C0000008954F
:1006A600289A2FEF82E597E0215080409040E1F7AD
:1006B60000C0000028982FEF82E597E02150804087
:0A06C6009040E1F700C00000089525
:1006D000ECE7F0E09081907F892B8083EAE7F0E0FF
:1006E000808180648083808186FDFDCF8091780049
:0606F000909179000895CD
:1006F600092E0394000C11F4882352F0BB0F40F42A
:10070600BF2B11F460FF04C06F5F7F4F8F4F9F4F69
:02071600089544
:1007180082E08093C0001092C50087E68093C400F1
:0E07280088E08093C10086E08093C2000895AF
:10073600CF93DF93EC018881882331F021960E94C4
:0E074600C40389918111FBCFDF91CF910895FB
:10075400A29FB001B39FC001A39F700D811D1124FE
:0E076400911DB29F700D811D1124911D0895ED
:10077200EC010E940F040E940E04CE010E9410049C
:06078200CE010E940C04F0
:10078800E0ECF0E0908195FFFDCF8093C6000895DE
:0E07980080E480937C0083E880937A000895CB
:0E07A6005058BB27AA270E94D9010C947B0350
:0E07B40000240A941616170618060906089562
:0E07C20000240A941216130614060506089564
:0E07D000E894BB2766277727CB0197F9089599
:0C07DE0097F99F6780E870E060E00895E4
:0A07EA000E94F80208F481E008956F
:0A07F4000E94F80208F48FEF089548
:0807FE000E9400010C947B0332
:080806000E946F010C947B03BA
:06080E009FEF80EC08954D
:040814000C94000040
:040818000E946000DA
:02081C0008953D
:02081E0008953B
:02082000089539
:10082200543D00432000493D004120004641554CC3
:10083200543A204F5645524C4F41440D0A0046410E
:10084200554C543A204F564552484541540D0A00E2
:100852005354415455533A204E4F524D414C0D0A78
:010862000095
:00000001FF
